:100000000C9495010C94C6010C94C6010C94C60185
:100010000C94C6010C94C6010C94C6010C94C60144
:100020000C94C6010C9496030C9496030C949603BE
:100030000C94C6010C94170D0C94C6010C94C601C7
:100040000C94C6010C94F4080C94C6010C94C601DF
:100050000C94C6010C94C6010C94C6010C94CD0CF2
:100060000C94C6010C94860E0C945C0E0C94C60184
:100070000C94C6010C94C6010C94C6010C94C601E4
:100080000C94C6010C94C6010C94C6010C94C601D4
:100090000C94C6010C94C6010C94C6010C94A003E8
:1000A0000C94C6010C94C6010C94C6010C94C601B4
:1000B0000C94C6010C94C6010C94C6010C94DB068A
:1000C0000C94C6010C94C6010C94C6010C94320E1B
:1000D0000C94080E0C94C6010C94DE0D0C94B40D17
:1000E0000C94C601CB05D005D505DF05E9056206F0
:1000F000F305FB0503060D061706210630063A0632
:10010000620644064E0658061C0C1F0C0E0C120C00
:10011000180C560C230C270C2D0C310C350C3B0CF9
:100120003F0C430C560C490C4D0C510C0C943A06E8
:100130000C94490C0C944E060C9466050C945702D2
:100140000C9484020C9462060C947C020C94350C82
:100150000C9458020C94D5050C943F0C0C94430C51
:100160000C94920B0C94230C0C942D0C0C946802A0
:100170000C94B00E0C941C0C0C941F0C0C942106C7
:100180000C9417060C9484060C94F3050C94440606
:100190000C9458060C94410B0C94560C0C94510C76
:1001A0000C94310C0C9430060C9459020C944D0CA8
:1001B0000C94180C0C943B0C0C942A050C94CB0555
:1001C0000C94640B0C94500B0C940E0C0C9467055F
:1001D0000C940D060C9456020C94B1020C94170B5F
:1001E0000C94FB050C94E9050C94DF0B0C94CB0EDE
:1001F0000C9403060C94DF050C94270C0C94120C41
:100200000C94D00500002200250028002B002E00B1
:100210003100340002010000050108010B0100005B
:1002200020002300260029002C002F0032000001AE
:100230000000030106010901050505050705080879
:100240000808020202020A0A080804040404010160
:100250000101010101010303030303030303040775
:1002600007070C0C0C0C0C0C0C0C0202020206060C
:100270000606060606060B0B0B0B0B0B0B0B0102FF
:1002800010202008081020401020408002010201A8
:100290000804020101020408102040808040201060
:1002A00008040201800402018040201008040201B9
:1002B0000804020101020408102040800102040821
:1002C0001020408000000A0B02090C0D0E080703E5
:1002D0000401000000000000000000000000000019
:1002E000000000000000000000000000000000000E
:1002F00012111000000000000000000000000000CB
:1003000000000000000000000000020000210024A6
:100310000027002A002D00300033000101000004F6
:100320000107010A0100CB0EB00E11241FBECFEF52
:10033000D1E2DEBFCDBF00E00CBF12E0A0E0B2E032
:10034000E4E1F0E300E00BBF02C007900D92A03A99
:10035000B107D9F727E0A0EAB2E001C01D92A93B9E
:10036000B207E1F711E0C4E9D1E000E006C021974F
:100370000109802FFE010E94BB14C339D10780E020
:100380000807A9F70E94B5100C94F8170C94000008
:100390003091AA02313208F04BC08091A80281113D
:1003A000FCCF9091810622E02093A80221E02093C7
:1003B000A7022FEF20935F0610925E0630935D0632
:1003C000E1E6F6E0ADE3B6E020E0321721F041913E
:1003D0004D932F5FFACF10923C0620913C06990F67
:1003E000922B90933C069091A602913061F410926A
:1003F000A60290913C069093BB009091BC0093FDA7
:10040000F8CF95EC01C095EE9093BC009091A802B6
:100410009230E1F390915F069F3F79F080915F0603
:10042000803241F080915F06803331F084E005C076
:1004300081E003C082E001C083E01092A902109223
:10044000AA0210926006089585ED8093BC00809109
:10045000BC0084FDFCCF1092A802089540911706BD
:10046000262F30E0240F311D21323105DCF420919C
:10047000A8022430C9F4FC0180E090E0861758F40B
:10048000309117062191DC01A950BA4FA30FB11D7D
:100490002C930196F3CF80911706680F609317068F
:1004A00080E0089581E0089582E008950895089518
:1004B0000895E091A1028091A002E81730F4F0E0E5
:1004C000E952FA4F808190E008958FEF9FEF0895F1
:1004D0009091A1028091A002981750F4E92FF0E0CA
:1004E000E952FA4F208130E09F5F9093A10202C051
:1004F0002FEF3FEFC90108958091A00290E0209175
:10050000A102821B91090895CF92DF92EF92FF9290
:100510000F931F93CF93DF937C01CB018A0120912E
:100520006006222389F0EB016B01C40ED51ECC15A9
:10053000DD0569F06991D701ED91FC910190F081A1
:10054000E02DC7011995F3CF642F0E942E02C80138
:10055000DF91CF911F910F91FF90EF90DF90CF909F
:100560000895CF93DF931F92CDB7DEB769832091B3
:1005700060062223D1F02091AA02203240F021E02F
:1005800030E0FC013383228380E090E015C080914D
:10059000A902E82FF0E0EF59F94F998190838F5F1E
:1005A0008093A9028093AA0205C061E0CE01019662
:1005B0000E942E0281E090E00F90DF91CF9108958C
:1005C000CF93DF93009779F0FC0101900020E9F7C9
:1005D0003197AF01481B590BBC0181EF93E00E949A
:1005E000170BEC0102C0C0E0D0E042E050E067E74A
:1005F00072E081EF93E00E94170B8C0F9D1FDF913B
:10060000CF910895823040F08AE792E00E94E002A4
:1006100060E070E0CB01089581110CC08BEB95E098
:100620000E94CB0790958095709561957F4F8F4F75
:100630009F4F08958DEB95E00C94CB070F931F937C
:10064000CF93DF93162F072FCEE9D5E09C8521E0CD
:1006500020936006909381061092A9021092AA023C
:10066000AA85BB85ED91FC9111970190F081E02D59
:10067000682FCD0119958A859B85DC01ED91FC9150
:100680000190F081E02D602F19958A859B85DC0112
:10069000ED91FC910190F081E02D612F1995DF9192
:1006A000CF911F910F910C94C801FC01248131E07E
:1006B00030936006209381061092A9021092AA023C
:1006C0008485682B8BEA92E00E94B1020C94C801E9
:1006D0000F931F93CF938C01C62F64600E94550324
:1006E0006C2F6B7FC8010E94550383EC90E001974B
:1006F000F1F7CF911F910F910895FC01A089B18965
:100700008C91A689B78982FD0FC09C91818D8F5FE6
:100710008F73228D821749F0218DDF01A20FB11D49
:100720005D969C93818F08958C9108951F920F92EE
:100730000FB60F9211240F900FBE0F901F901895B7
:100740001F920F920FB60F9211240BB60F922F9398
:100750003F934F935F936F937F938F939F93AF9349
:10076000BF93EF93FF938091B900887F803609F49F
:100770009CC068F5883209F45BC090F4803109F4BC
:1007800054C038F4882309F4F6C0883009F44DC009
:10079000F6C0883109F44CC0803209F45DC0EFC066
:1007A000803409F468C048F4803309F455C08833B4
:1007B00009F0E5C080935F06D8C0803509F44FC0CA
:1007C000883509F45DC0883409F0D9C0D6C08839AD
:1007D00009F4C7C0A8F4883709F467C038F488362C
:1007E00009F463C0803709F460C0C9C0883809F4CF
:1007F000B8C0803909F45FC0803809F0C0C05BC060
:10080000803B09F486C038F4803A09F466C0883A1F
:1008100009F47FC0B4C0803C09F4A7C0883C09F447
:10082000A4C0883B09F48AC0AAC080913C0610C0CD
:1008300090915E0680915D06981770F5E0915E06D6
:1008400081E08E0F80935E06F0E0E35CF94F8081DB
:100850008093BB0085EC86C080935F068EC0E091DC
:100860005E0681E08E0F80935E068091BB00F0E013
:10087000E35CF94F808390915E0680915D066EC0C7
:10088000E0915E0681E08E0F80935E068091BB0052
:10089000F0E0E35CF94F80838091A70281116DC085
:1008A00081E08093A60284EA61C083E08093A8027D
:1008B00010923906CFCF80913906803208F051C0AE
:1008C000E091390681E08E0F809339068091BB005C
:1008D000F0E0E75EF94F8083BDCF85EC8093BC00EC
:1008E0001092A80280913906803230F4E0913906E6
:1008F000F0E0E75EF94F10826091390670E0E09118
:10090000A402F091A50289E196E0199510923906AA
:1009100036C084E08093A802109218061092170641
:10092000E091A202F091A30219958091170681111E
:1009300005C081E0809317061092F705E091180634
:1009400081E08E0F80931806F0E0E950FA4F808125
:100950008093BB009091180680911706981708F4B1
:1009600079CF85E88093BC000AC085EC8093BC00F9
:100970001092A80204C010925F060E942402FF9108
:10098000EF91BF91AF919F918F917F916F915F9107
:100990004F913F912F910F900BBE0F900FBE0F9074
:1009A0001F901895CF93DF93282F30E0F901EC5377
:1009B000FD4F8491F901E258FD4FD491F901E85CB3
:1009C000FD4FC491CC2391F081110E94010CEC2FBA
:1009D000F0E0EE0FFF1FE25EFD4FA591B491EC91A8
:1009E000ED2381E090E021F480E002C080E090E01F
:1009F000DF91CF9108951F93CF93DF93282F30E09D
:100A0000F901EC53FD4F8491F901E258FD4FD49167
:100A1000F901E85CFD4FC491CC23C1F0162F811180
:100A20000E94010CEC2FF0E0EE0FFF1FEC5FFD4F7A
:100A3000A591B4919FB7F894111104C08C91D095F1
:100A4000D82302C0EC91DE2BDC939FBFDF91CF91C6
:100A50001F910895FC01918D228D892F90E0805C7B
:100A60009F4F821B91098F7399270895E0E0F0E072
:100A7000199480E090E0892B21F00E94880B81116D
:100A800019C080E090E0892B41F080E090E0892B54
:100A900021F00E940000811110C00E947E0B811184
:100AA0000FC080E090E0892B81F00E94740B8111CF
:100AB0000AC008950E940000E4CF0E940000EDCF1C
:100AC0000E943605EECF0C9400000895089580E052
:100AD00090E008958F929F92AF92BF92CF92DF9253
:100AE000EF92FF920F931F93CF93DF938C016A01D4
:100AF0007B0120E030E04FE753E4C701B6010E94DC
:100B0000F1134B015C0120E030E0A9010E94D815EF
:100B100018161CF4C501B40103C0C501B4019058F6
:100B20000E94A215EB0120E030E0A901C701B60147
:100B30000E94D815181614F460E001C061E0F801B5
:100B400081810E94FB04CF3FD10509F014F4DD2719
:100B500002C0CFEFD0E0F801108161E0812F0E9448
:100B6000570C209709F4B1C0CF3FD10509F4AFC0AD
:100B7000E12FF0E0EC53FD4FE4918E2F90E0FC016B
:100B80003197E231F10508F09DC08827EE58FF4FFC
:100B90008F4F0C94BB1484B5806884BDC7BDA7C0BB
:100BA00084B5806284BDC8BDA2C080918000806889
:100BB00080938000D0938900C093880098C0809172
:100BC0008000806280938000D0938B00C0938A0065
:100BD0008EC080918000886080938000D0938D00CB
:100BE000C0938C0084C08091B00080688093B00076
:100BF000C093B3007CC08091B00080628093B0004D
:100C0000C093B40074C0809190008068809390007D
:100C1000D0939900C09398006AC080919000806240
:100C200080939000D0939B00C0939A0060C0809105
:100C30009000886080939000D0939D00C0939C00AA
:100C400056C08091A00080688093A0008091A00091
:100C50008F7B8093A000D093A900C093A80047C0C9
:100C60008091A00080628093A000D093AB00C093DD
:100C7000AA003DC08091A00088608093A000D0931E
:100C8000AD00C093AC0033C0809120018068809398
:100C90002001D0932901C093280129C0809120010F
:100CA000806280932001D0932B01C0932A011FC042
:100CB00080912001886080932001D0932D01C09302
:100CC0002C0115C0C038D10514F460E001C061E00A
:100CD000812FDF91CF911F910F91FF90EF90DF90C7
:100CE000CF90BF90AF909F908F900C94FB04DF91BA
:100CF000CF911F910F91FF90EF90DF90CF90BF9019
:100D0000AF909F908F9008950F931F93CF93DF9391
:100D10008C01C62FD62FD07FD1606D2F0E94550336
:100D20006D2FC8010E94680380E1C89FB0011124A3
:100D3000C62FC1606C2FC8010E9455036C2FC801DB
:100D40000E94680381E090E0DF91CF911F910F91A5
:100D50000895823020F08EE892E00C94E002813019
:100D600009F4705890E0880F991F89549A4F0C9499
:100D70006A05FC01848DDF01A80FB11DA35ABF4F86
:100D80002C91848D90E001968F739927848FA6898A
:100D9000B7892C93A089B1898C91837080648C93DE
:100DA000938D848D981306C00288F389E02D80818D
:100DB0008F7D808308951F920F920FB60F9211249A
:100DC0000BB60F922F933F934F935F936F937F9345
:100DD0008F939F93AF93BF93EF93FF9380918F0473
:100DE0000E94D20420919304309194042F5F3F4FCE
:100DF000309394042093930490919204953618F0C4
:100E000096E090938E0490918E049430C9F128F46A
:100E1000923069F09330D1F05EC0953009F451C042
:100E2000963009F058C091E090935F0551C0811150
:100E300052C020919304309194042436310508F473
:100E400042C010925F05109292041CC0813009F0DC
:100E500042C0E091920491E09E0F90939204F0E0E2
:100E60002091930430919404EE0FFF1FE257FB4F43
:100E700030872783109294041092930494E029C041
:100E8000811117C0E091920491E09E0F909392041B
:100E9000F0E02091930430919404EE0FFF1FE2578D
:100EA000FB4F30872783109294041092930493E0B1
:100EB00010C020919304309194042536310558F0E8
:100EC00007C0811108C0109294041092930403C0CB
:100ED00095E090938E04909191049923B9F081113B
:100EE0000AC080919004882321F08091900461E0F1
:100EF00009C02F9A0BC080919004882331F0809113
:100F0000900460E00E94FB0401C02F98FF91EF91D4
:100F1000BF91AF919F918F917F916F915F914F9111
:100F20003F912F910F900BBE0F900FBE0F901F900F
:100F300018958EBD00000DB407FEFDCF8EB5089547
:100F4000CF93DF93EC0160E088810E94FB0488E985
:100F50000E94990780E00E94990780E00E9499070B
:100F600080E00E94990780E00E94990761E08881F3
:100F70000E94FB048BE891E00197F1F760E0888123
:100F80000E94FB0480EE0E94990761E08881DF9156
:100F9000CF910C94FB04AF92BF92CF92DF92EF926D
:100FA000FF920F931F93CF93DF93CDB7DEB7609778
:100FB0000FB6F894DEBF0FBECDBF5C0160E0FC0150
:100FC00080810E94FB0480E60E9499078E010F5FDA
:100FD0001F4F7E01F1E1EF0EF11C680180E00E94DD
:100FE000990790E0A0E0B0E0F60181939193A1937E
:100FF000B1936F01EE15FF0589F761E0F50180817E
:101000000E94FB0480E090E0DC01F80141915191E5
:10101000619171918F01BA2FA92F982F8827840F82
:10102000951FA61FB71FEE15FF0579F79C01AD01AF
:1010300066277727CB01621B730B840B950B609699
:101040000FB6F894DEBF0FBECDBFDF91CF911F91D9
:101050000F91FF90EF90DF90CF90BF90AF900895E9
:101060008F929F92AF92BF92CF92DF92EF92FF92B8
:10107000CF93DF936B017C0120E030E0A9010E9457
:101080008B13882309F497C08BEB95E00E94CB0764
:1010900090958095709561957F4F8F4F9F4F0E94DF
:1010A00092134B015C018DEB95E00E94CB070E94EF
:1010B00092139B01AC0180919F07811109C0C5016A
:1010C000B4010E94C3144B015C01C1E0D0E008C030
:1010D000C501B4010E94C4144B015C01CFEFDFEFE6
:1010E00020E030E040EA50E4C501B4010E94D81588
:1010F000181624F52FE632E143E85AE3C501B4019E
:101100000E94F1134B015C01BE01DD0F880B990BAE
:101110000E9492139B01AC01C501B4010E94F1131E
:10112000A70196010E94C414AB01BC0181E00E949A
:10113000A906B701A60187EB95E04AC020E030E0A0
:1011400040EA50ECC501B4010E948B1387FF1EC01A
:10115000C501B40190582FE632E143E85AE30E94FA
:10116000F1134B015C01BE01DD0F880B990B0E944E
:1011700092139B01AC01C501B4010E94F113A701B8
:1011800096010E94C414AB01BC0102C0B701A601C4
:1011900087EB95E00E946A05B701A60181E0DF9127
:1011A000CF91FF90EF90DF90CF90BF90AF909F9046
:1011B0008F900C94A90640E050E0BA0187EB95E0CF
:1011C0000E946A0540E050E060E070E889EB95E03D
:1011D000DF91CF91FF90EF90DF90CF90BF90AF90D5
:1011E0009F908F900C946A051F920F920FB60F92EA
:1011F00011240BB60F922F933F934F935F936F93EE
:101200007F938F939F93AF93BF93EF93FF938091BF
:10121000A40787FF05C0109285001092840016C0B5
:101220002091A407022E000C330B80919C0590E0C6
:10123000281739075CF43091A40725E03203F00148
:101240001124E05AFA4F808186FD15C08091A407D1
:101250008F5F8093A4072091A407022E000C330B0C
:1012600080919C0590E02817390794F48091A40799
:101270008C302CF10DC03091A4073203F001112401
:10128000E05AFA4F808160E08F730E94FB04DECF4A
:10129000809184009091850084349C4918F480E406
:1012A0009CE905C0809184009091850004969093FC
:1012B0008900809388008FEF8093A4072AC0409113
:1012C0008400509185003091A40725E03203F0019D
:1012D0001124E05AFA4F81819281840F951F9093D7
:1012E0008900809388003091A4073203F001112413
:1012F000E05AFA4F808186FF0CC03091A407320378
:10130000F0011124E05AFA4F808161E08F730E944E
:10131000FB04FF91EF91BF91AF919F918F917F91CE
:101320006F915F914F913F912F910F900BBE0F9056
:101330000FBE0F901F901895CF92DF92EF92FF9201
:10134000CF93DF937C018BEB95E00E94A0078DEBA0
:1013500095E00E94A00786E88E9DE0018F9DD00D4C
:101360001124C12CD12C760160E070E06C177D0750
:10137000E4F52DEC3CEC4CEC5DE3C701B6010E94BA
:10138000C4146B017C0120E030E040E05FE30E9488
:10139000D81518162CF4C12CD12CE12C8FE3F82E83
:1013A000C092A007D092A107E092A207F092A307F3
:1013B000C701B6010E94300862E370E080E090E06F
:1013C0000E94930C8BEB95E00E94CB078BEB95E092
:1013D0000E94CB079B01AC0188279927DC01821B67
:1013E000930BA40BB50BBC01C1CF8BEB95E00E9416
:1013F000A0078DEB95E00E94A007C090A007D090B9
:10140000A107E090A207F090A30720E030E0A90137
:10141000C701B6010E948B13882309F445C080914F
:101420009F072DEC3CEC4CEC5DE3882371F0C70189
:10143000B6010E94C4146B017C0120E030E0A901D8
:101440000E94D8151816BCF00DC0C701B6010E9445
:10145000C3146B017C0120E030E0A9010E948B13D2
:1014600087FD09C0C092A007D092A107E092A20711
:10147000F092A30708C01092A0071092A107109243
:10148000A2071092A3076091A0077091A107809115
:10149000A2079091A3070E94300864E670E080E004
:1014A00090E00E94930CA9CF10929F07DF91CF91FB
:1014B000FF90EF90DF90CF9008958F929F92AF9220
:1014C000BF92CF92DF92EF92FF92CF93DF937C0196
:1014D0006B018BEB95E00E94A0078DEB95E00E94DD
:1014E000A007B601DD0C880B990B0E9492132BED1F
:1014F0003FE049E450E40E94F11320E030E044E38F
:1015000053E40E94301520E030E048E951E40E94A5
:10151000F1134B015C016091D5057091D605072E42
:10152000000C880B990B0E9492139B01AC01C50122
:10153000B4010E94F1130E94A2154B01DE2D4DEC67
:101540005CEC6CE47EEB8E2D0E94A906C1E0EF28D6
:1015500009F0C0E04DEC5CEC6CE47EE38C2F0E9463
:10156000A906C12CD12C7601092C000CAA08BB08B5
:10157000C501B4010E9492139B01AC01C701B601E1
:101580000E948B1387FF15C08C2F0E9402036B01F2
:101590007C018D2F0E940203A7019601261B370BA9
:1015A000480B590BCA01B9010E9492136B017C01CF
:1015B000DFCF40E050E0BA0187EB95E00E946A057A
:1015C00040E050E060E070E889EB95E0DF91CF917A
:1015D000FF90EF90DF90CF90BF90AF909F908F9053
:1015E0000C946A053FB7F8948091B1079091B207C7
:1015F000A091B307B091B40726B5A89B05C02F3FB3
:1016000019F00196A11DB11D3FBFBA2FA92F982F28
:101610008827820F911DA11DB11DBC01CD0142E0A3
:10162000660F771F881F991F4A95D1F70895CF92AB
:10163000DF92EF92FF920F931F93CF93DF936C0192
:101640007A018B01C0E0D0E0CE15DF0581F0D80132
:101650006D918D01D601ED91FC910190F081E02D0D
:10166000C6011995892B11F02196EECF7E01C70195
:10167000DF91CF911F910F91FF90EF90DF90CF906E
:101680000895FC01538D448D252F30E0842F90E088
:10169000821B930B541710F0CF960895019708956D
:1016A000FC01918D828D981761F0828DDF01A80F6A
:1016B000B11D5D968C91928D9F5F9F73928F90E08C
:1016C00008958FEF9FEF0895FC01918D828D9817FB
:1016D00031F0828DE80FF11D858D90E008958FEF38
:1016E0009FEF08950E94E31787EB92E00E942A057E
:1016F00021E0892B09F420E0822F089584E593E00E
:101700000E942A0521E0892B09F420E0822F089508
:1017100081EF93E00E942A0521E0892B09F420E063
:10172000822F0895EF92FF920F931F93CF93DF9331
:10173000EC0181E0888F9B8D8C8D981305C0E88922
:10174000F989808185FD26C0F62E0B8D10E00F5F94
:101750001F4F0F731127E02E8C8DE8120CC00FB6AF
:1017600007FCFACFE889F989808185FFF5CFCE01A2
:101770000E94B906F1CF8B8DFE01E80FF11DE35AEF
:10178000FF4FF0829FB7F8940B8FEA89FB89808125
:1017900080620AC09FB7F894EE89FF896083E88968
:1017A000F98980818370806480839FBF81E090E0AD
:1017B000DF91CF911F910F91FF90EF900895CF93FC
:1017C000DF93EC01888D8823C9F0EA89FB89808149
:1017D00085FD05C0A889B9898C9186FD0FC00FB61B
:1017E00007FCF5CF808185FFF2CFA889B9898C915C
:1017F00085FFEDCFCE010E94B906E7CFDF91CF91F3
:10180000089590E0FC013197E231F10508F04EC0F7
:101810008827EC57FF4F8F4F0C94BB1480918000AA
:101820008F7703C0809180008F7D80938000089522
:1018300080918000877FF9CF84B58F7702C084B50F
:101840008F7D84BD08958091B0008F7703C0809113
:10185000B0008F7D8093B0000895809190008F77C5
:1018600007C0809190008F7D03C080919000877F9A
:101870008093900008958091A0008F7707C0809199
:10188000A0008F7D03C08091A000877F8093A0007F
:101890000895809120018F7707C0809120018F7D6E
:1018A00003C080912001877F809320010895CF930A
:1018B000DF9390E0FC01E258FD4F2491FC01E85CCD
:1018C000FD4F8491882361F190E0880F991FFC01FE
:1018D000E55FFC4FC591D491FC01EC5FFD4FA591F4
:1018E000B491611109C09FB7F89488812095822333
:1018F0008883EC912E230BC0623061F49FB7F8947B
:101900008881322F309583238883EC912E2B2C9362
:101910009FBF06C08FB7F894E8812E2B28838FBF16
:10192000DF91CF9108958F929F92AF92BF92CF9205
:10193000DF92EF92FF926B017C010E94F20A4B0151
:101940005C01C114D104E104F104F1F00E94F20A37
:10195000DC01CB0188199909AA09BB09883E93408B
:10196000A105B10570F321E0C21AD108E108F10820
:1019700088EE880E83E0981EA11CB11CC114D1040E
:10198000E104F10419F7DDCFFF90EF90DF90CF90E5
:10199000BF90AF909F908F9008951F920F920FB6B7
:1019A0000F9211242F933F938F939F93AF93BF93E5
:1019B0008091AD079091AE07A091AF07B091B007AD
:1019C0003091AC0723E0230F2D3720F40196A11DA1
:1019D000B11D05C026E8230F0296A11DB11D20935D
:1019E000AC078093AD079093AE07A093AF07B09379
:1019F000B0078091B1079091B207A091B307B09161
:101A0000B4070196A11DB11D8093B1079093B20751
:101A1000A093B307B093B407BF91AF919F918F91FB
:101A20003F912F910F900FBE0F901F9018951F920E
:101A30000F920FB60F9211240BB60F922F933F9374
:101A40004F935F936F937F938F939F93AF93BF93C6
:101A5000EF93FF938091A6079091A707A091A80705
:101A6000B091A907892B8A2B8B2B49F19091A5075F
:101A7000809100008927809300008091A6079091B3
:101A8000A707A091A807B091A907181619061A066A
:101A90001B060CF056C08091A6079091A707A09155
:101AA000A807B091A9070197A109B1098093A607DA
:101AB0009093A707A093A807B093A90742C080916D
:101AC0000002EAE0F3E0E4919FEF90930002E2303D
:101AD000C9F050F4EE2399F0E13081F590916F0058
:101AE0009D7F90936F002AC0E43019F1E0F0E5305B
:101AF00029F5909173009D7F909373001FC0109201
:101B00006E001CC0909170009D7F9093700091E0DA
:101B10009093B0009091B100987F94609093B10041
:101B20001092B3000BC0909171009D7F9093710053
:101B300005C0909172009D7F9093720060E00E94BA
:101B4000FB04FF91EF91BF91AF919F918F917F9196
:101B50006F915F914F913F912F910F900BBE0F901E
:101B60000FBE0F901F9018951F920F920FB60F92F5
:101B700011240BB60F922F933F934F935F936F9364
:101B80007F938F939F93AF93BF93EF93FF9387EBD5
:101B900092E00E94B906FF91EF91BF91AF919F91A2
:101BA0008F917F916F915F914F913F912F910F9006
:101BB0000BBE0F900FBE0F901F9018951F920F92A3
:101BC0000FB60F9211240BB60F922F933F934F93A2
:101BD0005F936F937F938F939F93AF93BF93EF9395
:101BE000FF9387EB92E00E947D03FF91EF91BF91FD
:101BF000AF919F918F917F916F915F914F913F91A5
:101C00002F910F900BBE0F900FBE0F901F90189545
:101C10001F920F920FB60F9211240BB60F922F93B3
:101C20003F934F935F936F937F938F939F93AF9364
:101C3000BF93EF93FF9384E593E00E94B906FF9171
:101C4000EF91BF91AF919F918F917F916F915F9134
:101C50004F913F912F910F900BBE0F900FBE0F90A1
:101C60001F9018951F920F920FB60F9211240BB66A
:101C70000F922F933F934F935F936F937F938F9325
:101C80009F93AF93BF93EF93FF9384E593E00E94FC
:101C90007D03FF91EF91BF91AF919F918F917F91C4
:101CA0006F915F914F913F912F910F900BBE0F90CD
:101CB0000FBE0F901F9018951F920F920FB60F92A4
:101CC00011240BB60F922F933F934F935F936F9313
:101CD0007F938F939F93AF93BF93EF93FF9381EF86
:101CE00093E00E94B906FF91EF91BF91AF919F9150
:101CF0008F917F916F915F914F913F912F910F90B5
:101D00000BBE0F900FBE0F901F9018951F920F9251
:101D10000FB60F9211240BB60F922F933F934F9350
:101D20005F936F937F938F939F93AF93BF93EF9343
:101D3000FF9381EF93E00E947D03FF91EF91BF91AC
:101D4000AF919F918F917F916F915F914F913F9153
:101D50002F910F900BBE0F900FBE0F901F901895F4
:101D6000CF93DF9380914407909145070E947516A9
:101D7000C0E8D7E02697888199810E94751687E090
:101D8000CA34D807B9F78091800790918107DF9115
:101D9000CF910C9475161092AE021092AD0288EE9F
:101DA00093E0A0E0B0E08093AF029093B002A093E4
:101DB000B102B093B20223E132E03093AC0220933F
:101DC000AB021092BA021092B9028093BB029093B8
:101DD000BC02A093BD02B093BE0225E232E0309374
:101DE000B8022093B70245E351E05093C4024093F8
:101DF000C30244E351E05093C6024093C50240E35E
:101E000051E05093C8024093C70241E351E0509320
:101E1000CA024093C90242E351E05093CC0240937E
:101E2000CB0246E351E05093CE024093CD02109294
:101E3000D0021092D1021092D2021092D3021092CC
:101E40005703109256038093580390935903A0931D
:101E50005A03B0935B03309355032093540345ED2D
:101E600050E0509361034093600344ED50E0509381
:101E700063034093620340ED50E050936503409349
:101E8000640341ED50E0509367034093660342EDD5
:101E900050E0509369034093680346ED50E050933F
:101EA0006B0340936A0310926D0310926E031092BD
:101EB0006F03109270031092F4031092F303809357
:101EC000F5039093F603A093F703B093F8033093D0
:101ED000F2032093F10385EC90E09093FE0380934E
:101EE000FD0384EC90E0909300048093FF0380EC6A
:101EF00090E0909302048093010481EC90E0909331
:101F000004048093030482EC90E090930604809391
:101F1000050486EC90E090930804809307041092E7
:101F20000A0410920B0410920C0410920D0480917C
:101F3000070290910802A0910902B0910A028093D1
:101F4000BF059093C005A093C105B093C2058091D1
:101F50000B0290910C02A0910D02B0910E028093A1
:101F6000C3059093C405A093C505B093C60584E04E
:101F70008093C70587E08093C8051092C90584EB5C
:101F80008093CA0586E18093CB0588E18093CC05D8
:101F900087E18093CD0589E18093CE05E0919C0592
:101FA000EC3020F08FEF8093CF0510C081E08E0FD2
:101FB00080939C05E093CF0585E0E89FF001112414
:101FC000E05AFA4F88EB9BE092838183E0919C0575
:101FD000EC3020F08FEF8093D00510C081E08E0FA1
:101FE00080939C05E093D00585E0E89FF0011124E3
:101FF000E05AFA4F88EB9BE0928381838CE08093D8
:102000009E0584E280939F0586E08093A00585E08D
:102010008093A1058FE18093A2058EE18093A305B3
:1020200083E28093A40582E28093A50585E48093F2
:10203000A60584E48093A70580E48093AA05109206
:10204000AF051092B0051092B1051092B205109232
:10205000B3051092B4051092B5051092B605E6E8E6
:10206000F6E024E437E08FEF9FEFDC011282138269
:1020700014821582168217821086118683879487B0
:10208000A587B6878787908BA18BB28B128611822A
:10209000108273962E173F0749F78DE090E00E945B
:1020A000DD15FC011382128287E392E09183808325
:1020B000118687E2848384E1828784E083871486A3
:1020C000F0938306E09382061092840610928506B0
:1020D00085E280938F041092910469E772E080E8B2
:1020E00097E00E943D136FE372E08AE497E00E945C
:1020F0003D1365E472E080E597E00E943D136AE4D9
:1021000072E086E597E00E943D136FE472E08CE593
:1021100097E00E943D1365E572E082E697E00E9439
:102120003D1360E672E088E697E00E943D1367E6A3
:1021300072E08EE697E00E943D1360E672E084E76D
:1021400097E00E943D136EE672E08AE797E00E94F6
:102150003D1385E890E09093D6058093D50569E717
:1021600072E084E497E00C943D13789484B5826027
:1021700084BD84B5816084BD85B5826085BD85B52B
:10218000816085BD80916E00816080936E001092A9
:102190008100809181008260809381008091810024
:1021A00081608093810080918000816080938000B5
:1021B0008091B10084608093B1008091B000816013
:1021C0008093B00080919100826080939100809113
:1021D0009100816080939100809190008160809354
:1021E00090008091A10082608093A1008091A10065
:1021F00081608093A1008091A00081608093A00005
:102200008091210182608093210180912101816070
:102210008093210180912001816080932001809131
:102220007A00846080937A0080917A008260809343
:102230007A0080917A00816080937A0080917A00A0
:10224000806880937A001092C100E0910104F091BF
:10225000020482E08083E091FD03F091FE0310828E
:10226000E091FF03F09100048FEC80831092090449
:10227000E0910504F091060486E08083E091030478
:10228000F0910404808180618083E0910304F091E7
:102290000404808188608083E0910304F091040449
:1022A000808180688083E0910304F0910404808140
:1022B0008F7D808361E080919F050E94570C60E0D4
:1022C00080919F050E94FB0460E080919E050E9422
:1022D000570C8BEA92E09093A9058093A805109281
:1022E000A1021092A0021092A9021092AA021092CA
:1022F000A80281E08093A7021092A60261E084E127
:102300000E94FB0461E085E10E94FB048091B9001A
:102310008E7F8093B9008091B9008D7F8093B90042
:1023200088E48093B80085E48093BC0086E592E061
:102330009093A3028093A20287E592E09093A50276
:102340008093A40280E090E1A0E0B0E08093AB0530
:102350009093AC05A093AD05B093AE058AE090E0F4
:10236000A0E0B0E08093AF059093B005A093B105D5
:10237000B093B20580E090E0A0E0B0E48093B305B4
:102380009093B405A093B505B093B60560E070E1F5
:1023900085E00E941E036FE979E380E00E941E033E
:1023A000CEE9D5E08E0152E0752E6DE6A62E62E0F4
:1023B000B62E73EB872E72E0972EEBECEE2EE7E055
:1023C000FE2EF80194818281898F9A8F61E00E94AC
:1023D000570C61E08A8D0E94570CF8019085868128
:1023E0006E01FDE1CF0ED11C8D8F9E8F61E00E94AA
:1023F000570C60E08E8D0E94570C61E08D8D0E941D
:10240000FB046FB6F8948091AA07811126C0F501EC
:102410008491F4012491E82FF0E0EE0FFF1FE55FB7
:10242000FC4FA591B4919C91822F892321F461E006
:1024300085E30E94FB0461E085E30E94570C8CB5A4
:1024400080618CBD8CB580648CBD61E084E30E94AA
:10245000570C61E083E30E94570C8091AA078F5FBD
:102460008093AA076FBEC7010197F1F760E08D8DD9
:102470000E94FB0488E80E94990783E00E94990764
:1024800061E08D8D0E94FB04C7010197F1F7C60141
:102490000E94A0077A940F5F1F4F2296711091CF70
:1024A00003EC15E0C7ECD5E060E0F80181918F0105
:1024B0000E94570CF5E0073C1F07B1F70FEB15E042
:1024C00089ECE82E85E0F82E95E0D92E2CE0B22E8E
:1024D00032E0C32EA9908F818C3008F044C061E0B7
:1024E0008A2D0E94570C8F81D89EF0011124E05A4A
:1024F000FA4F9A2D9F732081207CA22EA92AA082B8
:10250000138214826B2D0E94AF142CE0829FA001D5
:10251000112420E030E0BA01620F731FD69EF00153
:10252000D79EF00D1124E05AFA4F908196FD12C00B
:102530002F5F3F4F2C30310571F781110BC0109286
:102540008000C09281001092850010928400C6BA6B
:10255000C0926F00EF81DE9EF0011124E05AFA4F25
:102560008081806480839D818B81F801828B938B35
:1025700060E00E94570C61E0F80183890E94570CCB
:1025800060E0F80183890E94FB040E5F1F4FEC1688
:10259000FD0609F09FCFF8941092200189E0809306
:1025A000210180E293E09093290180932801109209
:1025B00025011092240182E0809373007894809327
:1025C0008E041092920480918F0460E00E94570C58
:1025D000E091CF0525E0E29FF0011124E05AFA4F87
:1025E00080818F7B80836AE070E080E090E00E94D1
:1025F000930C60E08DE30E94570CC1E08091C6050A
:102600000E94D204892B21F48091AB078823B1F377
:10261000C093AB0760E67AEE80E090E00E94930CF6
:102620006AE570E081E090E00E945D0A88E290E057
:102630000E949C096AE570E080E090E00E945D0ADB
:102640008EE490E00E949C0967E870E080E090E0F2
:102650000E945D0A84EB90E00E949C0968EE73E0A2
:1026600080E090E00E94930C60E87AE48DE595E0CC
:102670000E94930C0E943905C1CFEF92FF920F93F5
:102680001F93CF93DF93EC01198218821B821A8269
:102690001D821C8261157105B9F17B01FB0101905E
:1026A0000020E9F731978F01061B170BB8016F5F08
:1026B0007F4F80E090E00E94FE16009759F09983CA
:1026C00088831B830A832C813D81232B81F4FC01A9
:1026D00010820DC088819981009711F00E947516B3
:1026E000198218821D821C821B821A820DC01D83D2
:1026F0000C83B70188819981DF91CF911F910F9150
:10270000FF90EF900C94F117DF91CF911F910F91F3
:10271000FF90EF9008950E94CD1308F481E0089592
:10272000E89409C097FB3EF490958095709561956B
:102730007F4F8F4F9F4F9923A9F0F92F96E9BB2721
:102740009395F695879577956795B795F111F8CF9D
:10275000FAF4BB0F11F460FF1BC06F5F7F4F8F4F08
:102760009F4F16C0882311F096E911C0772321F0FE
:102770009EE8872F762F05C0662371F096E8862F96
:1027800070E060E02AF09A95660F771F881FDAF7ED
:10279000880F9695879597F90895990F0008550F1A
:1027A000AA0BE0E8FEEF16161706E807F907C0F0D7
:1027B00012161306E407F50798F0621B730B840BDF
:1027C000950B39F40A2661F0232B242B252B21F4B9
:1027D00008950A2609F4A140A6958FEF811D811D59
:1027E00008950E9404140C9475140E94671438F024
:1027F0000E946E1420F0952311F00C945E140C943A
:10280000641411240C94A9140E94861470F3959FEB
:10281000C1F3950F50E0551F629FF001729FBB27D7
:10282000F00DB11D639FAA27F00DB11DAA1F649F73
:102830006627B00DA11D661F829F2227B00DA11D26
:10284000621F739FB00DA11D621F839FA00D611DAC
:10285000221F749F3327A00D611D231F849F600DCD
:10286000211D822F762F6A2F11249F5750409AF0F6
:10287000F1F088234AF0EE0FFF1FBB1F661F771F82
:10288000881F91505040A9F79E3F510580F00C944D
:102890005E140C94A9145F3FE4F3983ED4F386953C
:1028A00077956795B795F795E7959F5FC1F7FE2BED
:1028B000880F911D9695879597F9089597F99F67C9
:1028C00080E870E060E008959FEF80EC08950024B8
:1028D0000A941616170618060906089500240A9485
:1028E00012161306140605060895092E0394000C0B
:1028F00011F4882352F0BB0F40F4BF2B11F460FF9A
:1029000004C06F5F7F4F8F4F9F4F089557FD9058C2
:10291000440F551F59F05F3F71F04795880F97FBA3
:10292000991F61F09F3F79F087950895121613065D
:102930001406551FF2CF4695F1DF08C0161617068C
:102940001806991FF1CF86957105610508940895C1
:10295000E894BB2766277727CB0197F90895991B41
:1029600079E004C0991F961708F0961B881F7A9586
:10297000C9F780950895EE0FFF1F881F8BBF079042
:10298000F691E02D19945058BB27AA270E94DB141A
:102990000C9475140E94671438F00E946E1420F095
:1029A00039F49F3F19F426F40C9464140EF4E09566
:1029B000E7FB0C945E14E92F0E94861458F3BA17B3
:1029C000620773078407950720F079F4A6F50C9445
:1029D000A8140EF4E0950B2EBA2FA02D0B01B9010F
:1029E00090010C01CA01A0011124FF27591B99F085
:1029F000593F50F4503E68F11A16F040A22F232F91
:102A0000342F4427585FF3CF469537952795A795E0
:102A1000F0405395C9F77EF41F16BA0B620B730B87
:102A2000840BBAF09150A1F0FF0FBB1F661F771FF8
:102A3000881FC2F70EC0BA0F621F731F841F48F4AD
:102A4000879577956795B795F7959E3F08F0B0CF36
:102A50009395880F08F09927EE0F9795879508951D
:102A60000E9444150C9475140E946E1458F00E9434
:102A7000671440F029F45F3F29F00C945E14511163
:102A80000C94A9140C9464140E94861468F399237E
:102A9000B1F3552391F3951B550BBB27AA2762175A
:102AA0007307840738F09F5F5F4F220F331F441F67
:102AB000AA1FA9F335D00E2E3AF0E0E832D091509B
:102AC0005040E695001CCAF72BD0FE2F29D0660F88
:102AD000771F881FBB1F261737074807AB07B0E8CB
:102AE00009F0BB0B802DBF01FF2793585F4F3AF0D1
:102AF0009E3F510578F00C945E140C94A9145F3F2E
:102B0000E4F3983ED4F3869577956795B795F79556
:102B10009F5FC9F7880F911D9695879597F908953E
:102B2000E1E0660F771F881FBB1F621773078407DA
:102B3000BA0720F0621B730B840BBA0BEE1F88F7E9
:102B4000E09508950E94A9156894B1110C94A914F8
:102B500008950E948E1488F09F5798F0B92F9927F6
:102B6000B751B0F0E1F0660F771F881F991F1AF078
:102B7000BA95C9F714C0B13091F00E94A814B1E021
:102B800008950C94A814672F782F8827B85F39F020
:102B9000B93FCCF3869577956795B395D9F73EF411
:102BA00090958095709561957F4F8F4F9F4F0895B9
:102BB0000E94CD1308F48FEF08950F931F93CF93C6
:102BC000DF938230910510F482E090E0E091B70746
:102BD000F091B80720E030E0A0E0B0E0309719F1C4
:102BE000408151810281138148175907C8F0841729
:102BF000950769F4109731F012960C93129713967B
:102C00001C9327C00093B7071093B80722C0211563
:102C1000310519F04217530718F49A01BD01EF016D
:102C2000DF01F801DBCF21153105F9F0281B390B45
:102C30002430310580F48A819B816115710521F072
:102C4000FB019383828304C09093B8078093B707F6
:102C5000FE01329644C0FE01E20FF31F819391936F
:102C600022503109398328833AC02091B507309129
:102C7000B607232B41F420910302309104023093D4
:102C8000B6072093B5072091010230910202211569
:102C9000310541F42DB73EB740910502509106022F
:102CA000241B350BE091B507F091B607E217F30747
:102CB000A0F42E1B3F0B2817390778F0AC014E5FAC
:102CC0005F4F2417350748F04E0F5F1F5093B6072C
:102CD0004093B5078193919302C0E0E0F0E0CF010B
:102CE000DF91CF911F910F910895CF93DF930097BC
:102CF00009F481C0FC01329713821282A091B707B8
:102D0000B091B807109781F420813181820F931F11
:102D10002091B5073091B6072817390751F5F09380
:102D2000B607E093B50767C0ED0120E030E0CE17AD
:102D3000DF0740F44A815B819E0141155105F1F0A6
:102D4000EA01F5CFD383C28340815181840F951F5F
:102D5000C817D90759F488819981840F951F029665
:102D6000918380838A819B8193838283211531059E
:102D700029F4F093B807E093B7073DC0E901FB835E
:102D8000EA8349915991C40FD51FEC17FD0761F4EF
:102D900080819181840F951F0296E9019983888330
:102DA000828193819B838A83E0E0F0E012968D918B
:102DB0009C911397009719F0FD01DC01F7CF8D91DD
:102DC0009C9111979D012E5F3F4F820F931F209181
:102DD000B5073091B6072817390769F4309729F4F9
:102DE0001092B8071092B70702C013821282B093F4
:102DF000B607A093B507DF91CF9108956F927F92A8
:102E00008F929F92AF92BF92CF92DF92EF92FF92FA
:102E10000F931F93CF93DF93009789F4CB01DF913A
:102E2000CF911F910F91FF90EF90DF90CF90BF90C7
:102E3000AF909F908F907F906F900C94DD15FC0168
:102E4000E60FF71F9C0122503109E217F30708F43F
:102E5000A9C0EC01D9010D911C9111970617170714
:102E6000B0F00530110508F49BC0C801049786171F
:102E7000970708F495C002501109061B170B019320
:102E800011936D937C93CF010E94751689C05B01ED
:102E9000A01AB10A4C01800E911EA091B707B09103
:102EA000B807612C712CE12CF12C109709F446C065
:102EB0008D919C911197A815B905B1F56C0142E06F
:102EC000C40ED11CCA14DB0478F14C018A189B088B
:102ED000640142E0C40ED11C1296BC901297139666
:102EE000AC91B5E0CB16D10440F0B282A3839182BD
:102EF0008082D9016D937C9309C00E5F1F4F800FB4
:102F0000911FF90191838083EB2DFA2FE114F104D5
:102F100031F0D7011396FC93EE93129741C0F093D2
:102F2000B807E093B7073CC06816790608F43C017F
:102F30007D0112960D90BC91A02DB7CF8091B50761
:102F40009091B60788169906E1F466167706C8F4DC
:102F50008091010290910202009741F48DB79EB7D3
:102F60004091050250910602841B950BE817F90762
:102F7000C8F4F093B607E093B507F9017183608355
:102F80000FC0CB010E94DD157C01009759F0A8010C
:102F9000BE010E94E817CE010E947516C70104C049
:102FA000CE0102C080E090E0DF91CF911F910F91A0
:102FB000FF90EF90DF90CF90BF90AF909F908F9059
:102FC0007F906F90089581E090E0F8940C94F8174A
:102FD000FB01DC0102C001900D9241505040D8F736
:102FE0000895FB01DC0101900D920020E1F70895A6
:102FF00011E0C4E9D1E000E006C0802FFE010E948C
:10300000BB142196011DC539D10780E00807A9F737
:04301000F894FFCF62
:10301400FF0000B9072000363738391B1D1A1C0081
:10302400000000B1028402670558027C026802595C
:103034000200000000920B170B410BDF0B2A055016
:103044000B640B000000008406170B67056605522D
:103054006F756765005665727400426C6575004A49
:1030640061756E6500426C616E632F4E6F6972000C
:1030740056696F6C6574004F72616E676500496EC6
:1030840076616C696465000D0A00496E76616C694D
:103094006420656E636F6465722069642100496E03
:1030A40076616C6964206D6F746F722069642100AD
:00000001FF
